:020000040000FA
:0600000000008031082819
:0C0008007E1480317E10090090313128F8
:1012000094315D2C94315E2C94314A2C94315E2CB7
:1012100094314A2C94314B2C9431512C9431702CB4
:101220009431532C9431522C94315F2C9431662C90
:0C12300094314A2C043403340934043493
:101240009731B62F9731C22F9731FF2F9731FF2F4C
:101250009731FF2F9731FF2F9731FF2F9731FF2FB6
:101260009731FF2F9731FF2F9731FF2F9731FF2FA6
:101270009731FF2F9731FF2F9731FF2F9731FF2F96
:101280009731FF2F9731FF2F9731FF2F9731FF2F86
:101290009731FF2F9731FF2F9731FF2F9731FF2F76
:1012A0009731FF2F9731FF2F9731FF2F9731FF2F66
:1012B0009731FF2F9731FF2F9731FF2F9731FF2F56
:0C12C0009731C82F9731D72F9731E22FBC
:101400009131D7299131D8299131D9299131ED29BB
:101410009131ED299131ED299131ED299131ED296C
:101420009131ED299131ED299131ED299131ED295C
:101430009131ED299131ED299131ED299131ED294C
:101440009131ED299131ED299131ED299131ED293C
:101450009131ED299131ED299131ED299131ED292C
:101460009131ED299131ED299131ED299131ED291C
:101470009131ED299131ED299131ED299131ED290C
:101480009131ED299131ED299131ED299131ED29FC
:101490009131ED299131ED299131ED299131ED29EC
:1014A0009131ED299131ED299131ED299131ED29DC
:1014B0009131ED299131ED299131ED299131ED29CC
:1014C0009131ED299131ED299131ED299131ED29BC
:1014D0009131ED299131ED299131ED299131ED29AC
:1014E0009131ED299131ED299131ED299131ED299C
:1014F0009131ED299131ED299131ED299131ED298C
:101500009131ED299131ED299131ED299131ED297B
:101510009131ED299131ED299131ED299131ED296B
:101520009131ED299131ED299131ED299131ED295B
:101530009131ED299131ED299131ED299131ED294B
:101540009131ED299131ED299131ED299131ED293B
:101550009131ED299131ED299131ED299131ED292B
:101560009131ED299131ED299131ED299131ED291B
:101570009131ED299131ED299131ED299131ED290B
:101580009131ED299131ED299131ED299131ED29FB
:101590009131ED299131ED299131ED299131ED29EB
:1015A0009131ED299131ED299131ED299131ED29DB
:1015B0009131ED299131ED299131ED299131ED29CB
:1015C0009131ED299131ED299131D4299131D629EB
:1015D0009131D5293D000E122100C91B172BC21FC6
:1015E000FD2A02302000EB0021006108031DF92ACA
:1015F00041232100E301E401080020006C0A860079
:101600002030870181005030F500F6016C08023E61
:1016100086007508C03F7608C13F6C0886008C3094
:10162000810021004F0886008430810008002000DE
:10163000D01F2B2BEB01EB0A21006208031D222B8C
:1016400041238A312100E301E40120006A08031DDF
:1016500008009231842A0230EB006C0A86002030A8
:10166000870181005030F500F6016C08023E8600CB
:101670007508C03F7608C13F6C0886008430810041
:10168000222BE201E101023020006B06031D5C2BDE
:101690006C0A8600203087018100A030F300F4013D
:1016A0006C08023E86007308C03F7408C13F6C0896
:1016B0008600C8308100080021004B082000570236
:1016C000031D662B21004A082000560203186F2BC9
:1016D00057082100CB00200056082100CA0096318F
:1016E000B426A030F300F4014F08023E86008701C3
:1016F0007308C03F7408C13F4F088600C83081009E
:10170000080022002A08031D952B20302702A13053
:10171000283B0730293B0318952B2A08A3002908EA
:10172000A2002808A10027089B2B0730A301A200D4
:10173000A130A1002030A0002308F3002208F2000D
:101740002108F1002008F000B730F701F6001B3047
:10175000F500F401C12373082000DB007208DA00F1
:101760007108D9007008D800FF30D807D93DDA3D9C
:10177000DB3D580823009B002000590823009C00F3
:101780000800F801F901FA01FB0173087204710401
:1017900070040319F72BFC01FC0AF31BD42BF03562
:1017A000F10DF20DF30DCC2BF835F90DFA0DFB0D03
:1017B00073087702031DE62B72087602031DE62BE1
:1017C00071087502031DE62B70087402031CF12BCF
:1017D0007008F4027108F53B7208F63B7308F73B9A
:1017E0007814F336F20CF10CF00CFC0BD42B7B08C4
:1017F000F3007A08F2007908F1007808F000080098
:1018000022000130A301A200C230A1000830A001D3
:10181000A401A501A60020001A30E901F40001305E
:1018200026248C311E30F40002302624A030F00132
:10183000F1004030F200023093314C232100DE00F1
:10184000DD010E118E112000E8010800F900741D61
:101850002C2CF00143248C31F41C322CF001F00AC2
:10186000790843247908983EF5000E30F601F63DDC
:101870007508F7007608F800770886007808870072
:10188000740881000800F2002030F3007008F100B5
:10189000F135720809070907710709070907F307F6
:1018A00073088600870181137008031D5A2C720883
:1018B000D23E5C2C7208CF3E8600870173088100FF
:1018C0007308860001137308043E860001170800A0
:0C18D000640080010131890B692C003498
:10206200673084000030850009308C31682490315B
:10207200C0308400003085002E308C3168249031CD
:1020820031308400013085000B308C31682490316E
:10209200A03084000130850040308C3168249031BA
:1020A200203084000330850040308C316824903128
:1020B2007E1020005C28632090311A21903170201C
:1020C20090315E2823008C018E0121009801FC30A2
:1020D2009900903027009B005F229031EE29220068
:1020E2000C168C16203020006E02031C08003D00E6
:1020F2008E18080021005908031D8C284030F70073
:102102002030D32090312100DB005B0803198C289A
:10211200D901D90ADA0159080319A12823009E1C02
:10212200A12821005A08203E8600033087000108BA
:10213200142190312100DA0A5A085B060319D901E9
:102142002000911EB8283F3067020318B82867089C
:10215200A03E860001308700C5209031810020001A
:10216200E70A6708A03E86000130870081016808FF
:10217200031DC42867080319C4286708F000A030AB
:10218200F6239031E701812B23009D1CCD281D12DF
:102192001908F0001D16D1281908F00022000C12AF
:1021A20070080800FB002000E90121005E08031905
:1021B200E2285E0886008701010D010D0139F90050
:1021C200E328F901FA0179087A04031D11295E0A4C
:1021D20086008701770801020318F3285E0886004B
:1021E200413FF7002000E901770869020318082936
:1021F20069087B07F8008600033087006908A03E63
:1022020084000230850000088100E90AF528A03028
:10221200F001F1004030F20002304C232100DE00D8
:10222200200069080800F00023009A0022008C12A6
:10223200080020006E08031D2E293D008E01920128
:10224200163091009F3097007B3092008E192B2917
:102252008E1527292000EE01EE0A6E03031D3B298D
:102262003D008E1A3B29900192011214121602307F
:102272002000EE003D001019121D422910113F23CB
:1022820090318E1C47292000121108001018121CD0
:102292005029EE2190310430EE003D001010101A4A
:1022A200121E5729342390313D001012101F70293D
:1022B200121F652973302000D800D901DA01DB0131
:1022C200DB0ADC01CC2190313D00101321006508AE
:1022D200031DE5036508031D7029842290313D002A
:1022E200901A921E76291A2390319018921C8629F0
:1022F200FF302000D8007F30D900DA01DB01DB0A91
:10230200DC01CC2190313D009301043020006E02AB
:1023120003188D29121108003D00921DC9292000C1
:10232200E601C6290F082000EF006F0CE500E50C5E
:10233200650C0F392100E7003D00901120006F1954
:10234200A92921006708313E860001308700AF29A4
:1023520021006708CC3E86000130870181066708AC
:10236200031DB629CD229031C02972302000D80039
:102372006F30D901DA00DB01DC01CC219031200081
:102382000430E60A66020318C9293D009019932910
:102392002000121108005908003A0319DB297F3A7C
:1023A2000319E829ED290C2C0A2C0B2C072C092CDB
:1023B200052C062C5808FF3E031C080084007530CB
:1023C2000402031808008A310435003E82005808CE
:1023D200FF3A0319DA29ED290800210012113D0004
:1023E2009301900198010E30F1009930F000F20152
:1023F20070088600710887008101F00A0319F10A4A
:102402000230F20A7202031CF92916303D009100D3
:102412009F3097007B309200F30173080907090788
:10242200203E860000308701C03FC13FC23FC33F0C
:102432000C30F30A7302031C0E2A3D000E1796019C
:102442000E120E133D00901D2D2A90112100C9017C
:10245200C201C301C401232A01302100E400E300C8
:10246200E201E101F3017308CF3E86008701810199
:102472007308D23E860081017308CC3E860081013A
:102482007308313E86000130870003308101F30A70
:102492007302031C342A28302100CF0016303D007D
:1024A20098002000A3015030A2002030A100843007
:1024B200A0002100ED012000EE01080074229031FD
:1024C200F0017008A03E8600013087004030810193
:1024D200F00A7002031C622A2000E7012100DB01DE
:1024E2008C120C12080021008E160E1224302300CA
:1024F2009E0090309D0071309B0002309C0008309D
:102502009F001908080021006408031D080001301B
:10251200E4006308031D08000130E30002302000DC
:102522006B06031D9E2A21004F0A86008701810146
:102532004F088600C830810008006B0B080021009C
:10254200E60120006D0A86002030870181005030AC
:10255200F000F1016D08023E86007008C03F71086C
:10256200C13F6D088600843081002100E601E60A41
:1025720020006C0A8600203081005030F000F1010A
:102582006C08023E86007008C03F7108C13F6C08AB
:1025920086008030810008002D30E50020006F08A1
:1025A200FD39031D132B6F363F3909070907203EFA
:1025B200ED00EC000430EC066D0886008701010C8A
:1025C200890C0F390D3A031D122BE4016408503EA9
:1025D200860087016D08023E84008501003FE2000B
:1025E200013FE3006208840063088500000881005F
:1025F2006D08023E86000130810741310318810ACD
:102602000830E40A6402031CE72A5030E200E301C6
:102612006D08023E860087016208C03F6308C13F21
:102622000D2C002FFD306F05E200043A031D080057
:102632005B2E181C322B20006D088600803087012B
:102642000106031D302B21004F088600843001064D
:10265200031D302B20006D0886008C3081003D0068
:10266200181090120800121510128E1475302000E6
:10267200D800D901DA01DB01DC01CC297430200059
:10268200D800D901DA01DB01DC01CC213D008E103A
:10269200121110110800F50070080319532B750868
:1026A200CF3E552B7508D23E860087010108F60001
:1026B2007608031900347108F3000230F40076083A
:1026C200023E86007308C03F7408C13F760A860046
:1026D20072088100760886004030810576088600FF
:1026E2008830810470080319792B7508CF3E7B2B43
:1026F2007508D23E860004308701810676080800FC
:1027020021005D0803198D2B5D0886008701010DEC
:10271200010D0139F7008E2BF701F80177087804D3
:10272200031D08000330200068060319E801680849
:1027320003190800023A031DAA2B0230F001F00A25
:10274200F101F2014C232100DD0003302000E800FA
:102752000800680B0800413021006002031CB32B03
:102762004030B42B6008FA00E0022030D5007A082D
:10277200F9005F080319CB2BDC2B550886000230C9
:102782008700570884000130850000088100D50ABF
:10279200D70AF90379080319DF2BBE2B55088600E7
:1027A200023087005708840001308500000881004C
:1027B200D50AD70AF9037908031DCF2B6008031D38
:1027C200EB2B40307A06031DE82B0230E92B033055
:1027D2002000E8002030F001F00AF1007A08F2004F
:1027E20002304C232100DD000800F1006808031DBF
:1027F200080071082100D7007008E000DF01DF0A3D
:102802002000E801E80A0800A42F08008C31002CFF
:1028120008000800080008002100EA012000EA017F
:102822002100E201E101E6012000EB0121004F0855
:102832008600043087018113CF064F0886000430DA
:102842008113CF0620006C08860081132100C90184
:10285200CA01CB01C201C301C4013A249031033041
:102862002000D800D901DA01DB01DC01CC218A3158
:10287200EA2A2000500E890C0339031D0800510872
:1028820084000D3004020318080089310435003E2B
:102892008200080021000830C9172000EE0008005D
:1028A2004C2DF12DED302100C7000030C800491435
:1028B200CA01CA0AC9170800B22D772C5408EB3E88
:1028C2002100C7000030C801582C2100C917200080
:1028D2005408EB3E8600870152088100080002304E
:1028E200D800D901DA01DB01DC01CC292000520B2E
:1028F2008B2C50081F39031D8B2C21000330C91764
:1029020020005106031D892C2100E801E80A8B2CC6
:102912002100E80120005208031D080050081F3959
:10292200023A031D080054080F390319080054081D
:102932000F39FA0003307A020318080020306E06BD
:10294200031D08002100C9172000D41BB62C54080F
:102952000F39D23E860087010108E00054080F3982
:10296200313E860001308700C12C54080F39CF3E1A
:10297200860087010108E00054080F39CC3E86002A
:102982000108DF005F18C72C6011C82C6015D41B2A
:10299200CE2C54080F39D23ED12C54080F39CF3ED9
:1029A200860087016008810003305106031DF22C66
:1029B20060088600811FEC2CD41BE62C54080F39CA
:1029C200313E860001308700EB2C54080F39CC3E93
:1029D20086008701811460088600843087018104A3
:1029E20008000430E0066008860087016008811F45
:1029F200092D86008113860005300117D800D90100
:102A02006008DA00DB01DB0ADC01CC2190310C2DFD
:102A120086008701011704302000E006DF18162D1A
:102A2200600886008701811F352DD41B1F2D540895
:102A32000F39313E860001308700242D54080F39AA
:102A4200CC3E860087018110600886003B308701FA
:102A520081050530D800D9016008DA00DB01DB0A04
:102A6200DC01CC2190313A2D600886003B30870191
:102A72008105200054080F39983EFA000E30FB0100
:102A8200FB3D7A08DD007B08DE005D0886005E08FB
:102A9200870001100800803020005006031D080046
:102AA200C0302100C900A52D73302100C700983025
:102AB200C8001230CA00CB0108005208F0008B3067
:102AC200F101F035F10D700784009830713D8500F9
:102AD200003F2100C700013FC800F1004708F00095
:102AE200023E840071080318710A85000008CA00BA
:102AF2004808F1004708F000033E840071080318FB
:102B0200710A85000008CB00080003305202031846
:102B1200A22D5208F0008530F101F035F10D700759
:102B220084009830713D8500003F2100C700013FBD
:102B3200C80047088400480885000008CA00CB0185
:102B420008002100C901080020005308013A0319B6
:102B5200552D033A03195E2D013A0319862DA22D34
:102B620008002100A001A101DB2D2100C9172014BA
:102B7200680BE72DA014E72D2100C917E72D2100CE
:102B8200C9172000D41BC92D54080F39D23ECC2DB1
:102B920054080F39CF3E860087010108F0008600F5
:102BA200811FE72D70088600011DE72D01302100ED
:102BB200A000E72D200050081F390319B62D013A55
:102BC2000319BD2D033A0319C02DE72D2100C91F9A
:102BD2000800A030C7000230C8014914CA0008002A
:102BE20021000E30C917FB009930FA00FC017A0867
:102BF20086007B0887008101FA0A0319FB0A02306A
:102C0200FC0A7C02031CF82D3030F001F101F200C5
:102C12002030F301492690313D000E17FD017D0859
:102C2200CC3E8600870181017D08313E860001305D
:102C3200870003308101FD0A7D02031C102E023041
:102C4200F001F101F200EB30F301492690313D0031
:102C52000E1328302100CF0020302000ED00EC00C0
:102C620052082100ED006D08031D3B2E103020009C
:102C7200EE0008002000ED30D801D80AD901DA00B0
:102C8200DB01DB0ADC01CC2120302000EE00080051
:102C9200F500F4000130F2020030F33B720F542EC3
:102CA200730A0319080074088600870170088100FE
:102CB200F40A4B2E21004F08860000308701011BC9
:102CC2000130FD000430CF06083020006E06031DDF
:102CD200752E52083D00960016080319722E103008
:102CE200732E04302000EE006B0B9F2EA030DC0010
:102CF200DD0121004F08023E8600870120005C08AA
:102D0200C03F5D08C13FB426903102306A06031D00
:102D1200902E4F08860084308701810008007D08CC
:102D2200031D992E4F088600C830870181000800D4
:102D32004F08860088308701810008002100C21FE9
:102D4200B12E450846040319AF2E0530C03E860059
:102D52008701413F8A00403F0A0096312100C21399
:102D62002000EB0108002030F200003021004B026D
:102D7200203003194A020318CA2E4A08F2006A08D0
:102D8200031DC62EEA01EA0ACA2E6A0BCA2E0230B7
:102D9200EA007208F000F1014A02CA0071084B3BD6
:102DA200CB004F0A8600870172088100A030E9003B
:102DB200491CEA2EFC2E6908860087014708840018
:102DC2004808850000088100C70A0319C80AE90AF1
:102DD200F203720803190800DC2E690886008701D5
:102DE200470884004808850000088100C70A0319C3
:102DF200C80AE90AF203720803190800EE2E02302B
:102E02006B06031D052F212FEB0121006608031D10
:102E12001F2F20006C0A860020308701810050306D
:102E2200E000E1016C08023E86006008C03F6108D4
:102E3200C13F6C0886008C3081000800E601080062
:102E42006D0886008701413FDF00DC00DD015D087F
:102E520021004402031D312F20005C08210043029F
:102E62000318362F43082000DF0020005F08DC0033
:102E7200DD0121004302C30020005D082100443B24
:102E8200C4002000DE015F085E020318592F2100F2
:102E9200400886000130870020005E08A03E8400C2
:102EA2008501000881002100C00A2000DE0A442FAB
:102EB20021004308440403197C2F20006C0A860079
:102EC200203087018100A030DC00DD016C08023E69
:102ED20086005C08C03F5D08C13F6D0886006C0833
:102EE200011B772F8600C8308100080086008830D9
:102EF20087018100080020006C0A860020308701CB
:102F020081005030DC00DD016C08023E86005C0866
:102F1200C03F5D08C13F6C088600843081002100FB
:102F22004508460403199D2F0530C03E8600413FE7
:102F32008A00403F0A0097312100C21320006A082C
:102F4200031D0800842A50081F39013A031D080096
:102F5200500E890C0339013A031D08005408031965
:102F6200F52F5403031D0800F52F34302100C7004C
:102F72000130C8000830CA00CB0149142100C9172A
:102F8200080034302100C7000130C800BF2F5708A5
:102F92002100C400200056082100C3002730C000D1
:102FA2008130C5000B30C600C21708002030210056
:102FB200C7000130C8000730CA00C130CB01C900C8
:102FC200080052082100DC00DC1CEA2F22008E11CE
:102FD200EC2F22008E1521005C1CF22F22000E1114
:102FE200BF2F22000E15BF2F510884002330040288
:102FF2000318080089310435203E82000800093494
:10300200023443340034023401340034C034FA341C
:1030120009340434003400340134023402340134FB
:10302200003405342434003410340134043424349C
:1030320002340234053424340634003401340534B5
:103042002434013400340134073405348134033428
:103052000A340034013409340434013400340234B3
:103062000A340034003400340734053402340234A4
:10307200403400340034073405348234023440349E
:1030820000340034183403344534003464340034DA
:1030920075340034693400346E3400346F340034D3
:1030A2002034003457340034693400344634003458
:1030B2006934003418340334533400346334003434
:1030C2006834003469340034723400346D340034AE
:1030D200693400346C3400346134003462340034B6
:1030E20073340034123401340034023402340034B4
:1030F20000342034D8340434C634EC34003401347F
:1031020001340234003401341A3489345B34983483
:08311200433498340034983472
:020000040001F9
:04000E00C4CFCFDFAD
:00000001FF
